:020000040800F2
:100000008006002089010008910100089301000882
:100010009501000897010008990100080000000000
:100020000000000000000000000000009B0100082C
:100030009D010008000000009F010008A1010008C8
:10004000A3010008A3010008A3010008A301000800
:10005000A3010008A3010008A3010008A3010008F0
:10006000A3010008A3010008A3010008A3010008E0
:10007000A3010008A3010008A3010008A3010008D0
:10008000A3010008A3010008A3010008A3010008C0
:10009000A3010008A3010008A3010008A3010008B0
:1000A000A3010008A3010008A30100081509000826
:1000B000A3010008A3010008A3010008A301000890
:1000C000A3010008A3010008A3010008A301000880
:1000D000A3010008A3010008A3010008A301000870
:1000E000A3010008A3010008A301000800F002F822
:1000F00000F03AF80AA090E8000C82448344AAF188
:100100000107DA4501D100F02FF8AFF2090EBAE885
:100110000F0013F0010F18BFFB1A43F0010318473B
:10012000A40E0000C40E0000103A24BF78C878C1A5
:10013000FAD8520724BF30C830C144BF04680C60ED
:10014000704700000023002400250026103A28BF35
:1001500078C1FBD8520728BF30C148BF0B60704739
:100160001FB51FBD10B510BD00F031F81146FFF7E7
:10017000F7FF00F08DFE00F04FF803B4FFF7F2FF39
:1001800003BC00F057F800000948804709480047C1
:10019000FEE7FEE7FEE7FEE7FEE7FEE7FEE7FEE737
:1001A000FEE7FEE704480549054A064B7047000094
:1001B0009D060008ED000008800000208006002059
:1001C000800200208002002070477047704775460B
:1001D00000F02CF8AE4605006946534620F00700B3
:1001E000854618B020B5FFF7DDFFBDE820404FF091
:1001F00000064FF000074FF000084FF0000BAC4630
:10020000ACE8C009ACE8C009ACE8C009ACE8C0097A
:1002100021F007018D46704710B50446AFF300800A
:100220002046BDE81040FFF7A8BF00000048704717
:100230000800002001491820ABBEFEE7260002009E
:100240007047000070B582B00C20012100F020F949
:1002500041F2000040F60004C4F60200C4F20104BA
:1002600001AD01902046294600F01CF84020C1F263
:10027000020004F5806601903046294600F012F82D
:100280000120C1F2020001902046294600F00AF840
:100290003046402100F064F82046012100F062F869
:1002A00002B070BD2DE9F041CA7802F00F0CD30600
:1002B00044BF8B784CEA030C09880B0621D00568F3
:1002C00000234FF001084FF00F0E002608E000BF9A
:1002D000282A08BF47610136082E03F104030FD016
:1002E00008FA06F70F42F6D00EFA03F425EA0404E2
:1002F0000CFA03F5482A45EA0405E9D10761EAE763
:100300000560B1F5807F38BFBDE8F0814468002307
:100310004FF4807E4FF00F08002607E0282A08BF20
:1003200047610136082E03F1040310D00EFA06F7D8
:1003300007EA0105BD42F4D108FA03F5AC430CFA13
:1003400003F5482A44EA0504E8D10761E9E7446077
:10035000BDE8F0818068084018BF012070470000A8
:100360004161704701617047F0B585B00C200121F3
:1003700000F08EF80120012100F08AF84FF40060AF
:10038000012100F085F842F6004440F20010C4F26A
:100390000104C1F60200A4F5105504AE04902846ED
:1003A0003146FFF77FFF42F20000C1F60200A4F5DC
:1003B0000057049038463146FFF774FF40F20020A2
:1003C000C1F60200049028463146FFF76BFF44F265
:1003D0000000C1F60200049038463146FFF762FF84
:1003E0004720019042F20F70029000208DF80C001F
:1003F00001A9204600F038FC2046012100F024FB32
:100400002046012100F012FB20460121012200F0CC
:1004100073FB05B0F0BD000010B5C17800294EF2A5
:100420000011CEF200011AD04EF60C52CEF20002AC
:100430001268072323EA12220F23C2F1040C23FAC5
:1004400002F24378847890F800E003FA0CF322403B
:100450001A43120101EB0E0383F8002300E0803100
:100460000078012300F01F0203FA02F2C0F34210E9
:1004700041F8202010BD0000002941F21C01C4F207
:1004800002010A680CBF22EA0000104308607047AE
:10049000002941F21801C4F202010A680CBF22EAE5
:1004A000000010430860704710B541F20404C4F224
:1004B0000204226802F00C02082A41F20022C0F273
:1004C0007A021CD12368D4F800C0C3F3834E5FEADC
:1004D000CC330EF1020C06D440F60012C0F23D02FD
:1004E0000CFB02F20BE023689B0302D40CFB02F22C
:1004F00005E040F60012C0F23D020CFB02F2026081
:10050000226840F6B273C2F30312C0F600039A5C8D
:100510000168D14041602268C2F302229A5C21FA4C
:1005200002F282602268C2F3C2229A5C40F6AE7385
:10053000D140C1602268C0F60003C2F381329A5CE8
:10054000B1FBF2F1016110BD70B588B0042001214A
:100550000125FFF79DFF01200121FFF799FF40F2E0
:10056000004042F60044C2F60300C4F201040790C2
:10057000A4F5105007A9FFF795FE4FF40060012184
:10058000FFF786FF4720049042F20F700590002687
:1005900004A920468DF8186000F066FB2046012172
:1005A00000F052FA0820CDE9010501A92046ADF876
:1005B0000C6000F06BFA40F21B20C0F200100090BB
:1005C0006846FFF729FF20460921012200F094FA2E
:1005D00008B070BD80B500F001F880BD82B041F276
:1005E00004000021C4F202000191009150F8041CA3
:1005F00041F4803140F8041C50F8041C01F400312F
:100600000091019901310191009919B90199B1F550
:10061000A06FF1D150F8041C890354BF00210121BF
:1006200000910099012936D142F20001C4F2020181
:100630000A6842F010020A600A6822F003020A60A7
:100640000A6842F002020A60016801600168016004
:10065000016841F480610160016821F47C1101604E
:10066000016841F4E811016050F8041C41F0807108
:1006700040F8041C50F8041C8901FBD5016821F0E6
:1006800003010160016841F002010160016801F0AD
:100690000C010829FAD102B07047000080B541F280
:1006A0000000C4F202000168002241F00101016073
:1006B0004168CFF6FF021140416001684FF6FF72BA
:1006C000CFF6F66211400160016821F480210160DB
:1006D000416821F4FE0141604FF41F018160FFF782
:1006E00079FF4EF60850CEF200004FF00061016035
:1006F00080BD0000B0B5048C24F00104048440F6F1
:10070000FF34B0F818C0B0F820E0C4F20004A042F2
:100710004FF6FC740DDCB0F1804F1DD040F2004567
:10072000C4F20005A84217D040F60005C4F2000547
:100730000FE040F60045C4F20005A8420CD042F696
:100740000045C4F20105A84206D043F20045C4F2B8
:100750000105A84218BF083C0EEA040529432CF005
:10076000F30542EA031241F001012A4302830184A6
:10077000B0BD000010B5048C24F01004048440F6D1
:10078000FF34B0F818C0B0F820E0C4F20004A04272
:100790000FDCB0F1804F1ED040F20044C4F20004E0
:1007A000A04218D040F60004C4F20004A04212D0C7
:1007B00022E040F60044C4F20004A0420BD043F211
:1007C0000044C4F20104A04205D042F60044C4F241
:1007D0000104A04210D10C012EF03001214340F65B
:1007E000FF441B0304EA0C0443EA022241F0100117
:1007F00022430283018410BD2EF0B004EEE7000016
:1008000010B5048C24F48074048440F6FF34B0F8EE
:100810001CC0B0F820E0C4F20004A0420FDCB0F12C
:10082000804F1ED040F20044C4F20004A04218D011
:1008300040F60004C4F20004A04212D01FE040F6CB
:100840000044C4F20004A0420BD043F20044C4F2BE
:100850000104A04205D042F60044C4F20104A042C3
:100860000DD10C022EF4407121432CF0F30442EA26
:10087000031241F4807122438283018410BD2EF45F
:100880003064F1E710B5048C24F48054048440F6FD
:10089000FF34B0F81CC0B0F820E0C4F20004A0425D
:1008A0000FDCB0F1804F1ED040F20044C4F20004CF
:1008B000A04218D040F60004C4F20004A04212D0B6
:1008C00022E040F60044C4F20004A0420BD043F200
:1008D0000044C4F20104A04205D042F60044C4F230
:1008E0000104A04210D10C032EF44051214340F6E4
:1008F000FF441B0304EA0C0443EA022241F4805142
:1009000022438283018410BD46F6FF5404EA0E049C
:10091000ECE70000F0B581B042F60044C4F20104F7
:100920002046082100F0A8F8002854D040F27005B5
:10093000C2F20005287868B3204600F09BF840F228
:100940007406C2F20006316840F2000208443060CA
:10095000306840F26C01C2F20001086008684CF691
:100960000931C8F63D51A0FB01014809C2F200025D
:10097000106040F20400C2F20000017821B340F29E
:100980007801C2F200010B78E3B11368282B0CD276
:1009900012220FE0012028702046002100F03EF9CD
:1009A0002046022100F032F915E013681E223C2B8C
:1009B00038BF1A2240F27C03C2F200031A60002200
:1009C00002700A700120087020460021002700F004
:1009D0001DF92F7037602046092100F031F801B071
:1009E000F0BD000010B584B0044602200121FFF7DD
:1009F00043FD4720ADF8084040F20044019000203C
:100A0000C4F20004ADF80A008DF80C0001A92046DC
:100A100000F02AF92046012100F016F820460121B5
:100A2000012200F069F804B010BD0000028800291E
:100A300018BF012122F0800242EAC11101807047F3
:100A4000C9430182704700000288002918BF0121B4
:100A500022F001021144018070470000B0F84420E8
:100A6000002918BF01216FF3DF3242EAC131A0F83B
:100A700044107047808C7047028A80890A4018BFF2
:100A80000122084018BF012010407047B0B50D4644
:100A90000988044608290DD0042916D001BB6988AD
:100AA000AA882B892046FFF725FEE988204600F01A
:100AB000B7F8B0BD6988AA882B892046FFF7A0FE49
:100AC000E988204600F0BEF8B0BD6988AA882B8965
:100AD0002046FFF74FFEE988204600F0A9F8B0BD98
:100AE0006988AA882B892046FFF7CCFEE988204632
:100AF00000F0B0F8B0BD0000002A82890CBF22EAE5
:100B00000101114381817047B0B5028C22F00102CE
:100B10000284038C8288B0F818C00C8923F0020389
:100B20002343A0F180444D88A4F59634B1F800E049
:100B30004FEAB424072C43EA050313D8012505FA2C
:100B400004F414F0E50F0DD04C8923F00C0324F0CD
:100B500004048D8823438C892B4322F44072CD8971
:100B600022432A432CF0730545EA0E058280058353
:100B7000C98881860384B0BD028B22F0080211432C
:100B800001837047B0B5028C43F2004422F010029A
:100B90000284028C8588B0F818C00B8922F02002EC
:100BA00042EA03124B88C4F20104B1F800E0A0420B
:100BB00042EA031205D042F60043C4F20103984210
:100BC00012D14B896FF0400422F0C00204EA0313F3
:100BD0008C881A4342EA04128C8925F44063CD893B
:100BE00043EA840343EA85052CF4E64343EA0E23F3
:100BF00085800383C98801870284B0BD028B22F4FB
:100C0000006242EA0121018370470000028C22F455
:100C1000007242EA0121018470470000818470471C
:100C2000028B22F00C020283028B11430183704776
:100C3000028B22F440620283028B42EA012101838B
:100C400070470000828B22F00C028283828B11435A
:100C500081837047828B22F440628283828B42EAD6
:100C6000012181837047000040F6FF33B0F800C0D7
:100C7000C4F2000398420FDCB0F1804F1ED040F266
:100C80000043C4F20003984218D040F60003C4F2B7
:100C90000003984212D016E040F60043C4F200036D
:100CA00098420BD043F20043C4F20103984205D0AE
:100CB00042F60043C4F20103984204D14B882CF061
:100CC000700243EA020C41F2004240F48063C4F235
:100CD0000002934204D0CA882CF4407342EA030C09
:100CE000A0F800C08A888285A0F18042A2F59632E1
:100CF0000B884FEAB222072A038507D8012303FA9B
:100D000002F212F0E50F1CBF097A018601218182EF
:100D10007047000070B586B005200121FFF7B8FBD1
:100D200044F200440420C4F20004C1F6030004F5B8
:100D3000444505AE059028463146FFF7B3FA082032
:100D4000ADF8140004208DF8170028463146FFF74F
:100D5000A9FA4FF400300121FFF78EFB4FF4165033
:100D6000019000204FF4402102900391ADF8100053
:100D700001A9204600F010F82046012100F002F8F9
:100D800006B070BD8289002918BF012122F40052EB
:100D900042EA41318181704770B586B00446008ACD
:100DA0000D46C98820F4405008432082A0894EF6A1
:100DB000F3110840A9882A896B8908431043184316
:100DC000A081A08AA98920F44070084301AEA082C6
:100DD0003046FFF769FB43F6000106F10800C4F254
:100DE00001018C4208BF06F10C0000681922B4F919
:100DF0000C1050432A680123B1F1FF3FC8BF022302
:100E000002FA03F1B0FBF1F048F21F51C5F2EB1109
:100E1000A0FB01235A096FF0630302FB0300B4F93E
:100E20000C300326B3F1FF3FC8BF042600FA06F0DA
:100E300000F13200A0FB01014FF00700C8BF0F20F6
:100E400000EA511040EA0210208106B070BD000097
:100E500010B584B06021013842F60044C0F20101AF
:100E6000ADF806000020C4F201040091ADF80400C2
:100E7000ADF8080069462046FFF746FE20460821E7
:100E8000FFF77AFE20460121FFF7E8FD04B010BD10
:100E900082B040F60048C4F20108FFF765FAFFF798
:100EA00039FFFFF7CFF90A20FFF79CFD40F26804F5
:100EB000C2F20004207870B9A8F58065012600BF51
:100EC00028464FF48051FFF745FA002808BF2670E6
:100ED00020780028F4D040F26C7000F049F840F21D
:100EE000A460FFF7B5FFFFF72FFB08200121FFF7F4
:100EF000CFFA48F20000C1F20200019001A9404679
:100F0000FFF7D0F940F27C0940F200040027A8F571
:100F10008435C2F20009C2F20004A8F5806603E03D
:100F200028460121FFF78CFD28460121FFF7A4FD8B
:100F30000028F9D040464FF400411FB9FFF712FADC
:100F4000012702E0FFF70CFA0027D9F8000021681A
:100F50008842E5D9FFF708FA012000F009F80120DE
:100F6000FFF776FF30460121FFF7FAF9D8E70000D6
:100F700010B584B00138ADF80600042042F60044F4
:100F80006021ADF804000020C4F201040091ADF826
:100F90000A0069462046FFF7F5FD20460821FFF7C5
:100FA0002DFE20460121FFF759FD04B010BD0204BB
:100FB0000608000000000102030401020304060702
:100FC00008090000E40F00080000002008000000ED
:100FD00028010008EC0F0008080000207806000037
:0C0FE000440100080A00000001000000AD
:040000050800018965
:00000001FF
