:020000040800F2
:10000000F8060020950100089D0100089F010008E6
:10001000A1010008A3010008A501000800000000DC
:10002000000000000000000000000000A701000820
:10003000A901000800000000AB010008AD010008A4
:10004000AF010008AF010008AF010008AF010008D0
:10005000AF010008AF010008AF010008AF010008C0
:10006000AF010008AF010008AF010008AF010008B0
:10007000AF010008AF010008AF010008AF010008A0
:10008000AF010008AF010008AF010008AF01000890
:10009000AF010008AF010008AF010008AF01000880
:1000A000AF010008F5050008AF010008AF01000826
:1000B000AF010008AF010008AF010008AF01000860
:1000C000AF010008AF010008AF0100086D0400088F
:1000D000AF010008AF010008310600084106000822
:1000E000AF010008AF010008AF01000800F002F8FE
:1000F00000F041F80AA090E8000C82448344AAF181
:100100000107DA4501D100F036F8AFF2090EBAE87E
:100110000F0013F0010F18BFFB1A43F0010318473B
:10012000440B0000640B0000103A24BF78C878C16B
:10013000FAD8520724BF30C830C144BF04680C60ED
:10014000704700000023002400250026103A28BF35
:1001500078C1FBD8520728BF30C148BF0B60704739
:10016000642900F07F80002070471FB500F0BAF8C6
:100170001FBD10B510BD00F03EF91146FFF7F5FFA9
:1001800000F01AFD00F05CF903B4FFF7F2FF03BCC6
:1001900000F066F90948804709480047FEE7FEE796
:1001A000FEE7FEE7FEE7FEE7FEE7FEE7FEE7FEE727
:1001B00004480549054A064B704700009D050008A4
:1001C000ED000008F8000020F8060020F8020020EA
:1001D000F80200200FB41CB5074B06AA7B44694601
:1001E0000090059800F0EFF80020694600F0FEF856
:1001F0001CBC5DF814FB00000D0200002DE9F0416D
:100200000E460446002020622046E168884730B34D
:10021000252805D0D4E901219047206A401CF2E747
:10022000E168204600278847050018D0A5F1410065
:10023000192802D820354FF4006732462946204657
:100240002760FFF78DFF40B1012804D0F61D26F08E
:1002500007060836D8E7361DD6E72846DAE7206ACB
:10026000BDE8F0812DE9F0410646002410687529AB
:10027000314616A510D0AFF30080002802DA4042C4
:1002800013A507E031688A0701D512A502E04907E6
:1002900004D511A5012401E0AFF3008000210A225A
:1002A00006F1240709E0B0FBF2FCB0FBF2F302FB1D
:1002B0001C00303078541846491C0028F3D12346DE
:1002C0002A463046BDE8F04100F01EB800000000AC
:1002D0002D0000002B000000200000007047704738
:1002E0007047000070B5064C7C44064D7D4404E028
:1002F0002046016808448047241DAC42F8D170BDF7
:10030000980900009C0900002DE9F0470D46994628
:100310009246044600F124080168880604D5E06985
:1003200021F01001216000E00120A84201DD471BFF
:1003300000E00027A1697A1902EB0900081AA06100
:100340002078C00602D42046AFF30080002608E0E3
:10035000D4E901211AF806009047206A401C761C57
:1003600020624E45F4DB2078C0060AD52046AFF364
:10037000008006E0D4E9012130209047206A401C2B
:100380002062381EA7F10107F4DC07E0D4E901215F
:1003900018F805009047206A401C2062281EA5F12D
:1003A0000105F3DC2046AFF300802078000602D57B
:1003B0000220BDE8F0870120FBE7000001694A1C2C
:1003C00002610878704700B58FB0CDE90131002196
:1003D000059105497944CDE9031011466846FFF7B8
:1003E0000DFF0FB000BD0000E5FFFFFF0A6802F837
:1003F000010B0A607047754600F02CF8AE46050008
:100400006946534620F00700854618B020B5FFF72F
:10041000CFFEBDE820404FF000064FF000074FF040
:1004200000084FF0000BAC46ACE8C009ACE8C009CE
:10043000ACE8C009ACE8C00921F007018D4670475F
:1004400010B50446AFF300802046BDE81040FFF72A
:100450009BBE000000487047180000207047000055
:1004600001491820ABBEFEE72600020080B543F22A
:100470000400C4F201000188090644BF81885FEAD4
:10048000817114D48188C90710D0018980888007C0
:1004900058BF80BD40F2A000C2F2000002680174A3
:1004A000511C016001F0070000F00AF980BD40F224
:1004B000A001C2F200014A68013A4A6002D0FF215D
:1004C0000181DFE700210181018821F080010180A5
:1004D000D8E7000080B500F001F880BD82B041F29D
:1004E00004000021C4F202000191009150F8041CA4
:1004F00041F4803140F8041C50F8041C01F4003130
:100500000091019901310191009919B90199B1F551
:10051000A06FF1D150F8041C890354BF00210121C0
:1005200000910099012936D142F20001C4F2020182
:100530000A6842F010020A600A6822F003020A60A8
:100540000A6842F002020A60016801600168016005
:10055000016841F480610160016821F47C1101604F
:10056000016841F4E811016050F8041C41F0807109
:1005700040F8041C50F8041C8901FBD5016821F0E7
:1005800003010160016841F002010160016801F0AE
:100590000C010829FAD102B07047000080B541F281
:1005A0000000C4F202000168002241F00101016074
:1005B0004168CFF6FF021140416001684FF6FF72BB
:1005C000CFF6F66211400160016821F480210160DC
:1005D000416821F4FE0141604FF41F018160FFF783
:1005E00079FF4EF60850CEF200004FF00061016036
:1005F00080BD00002420C4F20000018840F2A00267
:10060000C2F200029160B0F80008D06042F61040DB
:10061000C4F20100018821F0010101800421516030
:10062000B0F8F41341F08001A0F8F4137047000013
:1006300080B540F20400C2F2000000F0A7F980BDCE
:1006400080B540F20C00C2F2000000F09FF980BDBE
:1006500080B500F07FFA00F093FA00F09FFA80BDB9
:1006600080B500F085FA80BD40F2CC00C2F20000F7
:10067000006843F22D41CFF6A911A0FB0101880AC1
:100680007047000080B5014640F20C00C2F2000045
:1006900000F092F980BD000080B540F27800C2F20F
:1006A000000000F051F940F28C00C2F2000000F0AE
:1006B0004BF940F2B800C2F2000000F045F980BDED
:1006C00080B508B3072836D142F62040C4F20100B5
:1006D00030F8041C46F60102914205D140F2CC01EB
:1006E000C2F2000100220A60018821F480710180B9
:1006F0004AF61471818346F6700120F8041C0188C3
:1007000041F48061018080BD42F62040C4F20100C6
:10071000018821F48061018046F6010120F8041C63
:10072000018841F48071018030F8101C21F008012B
:1007300020F8101C80BD42F62041C4F2010131F8BE
:10074000102C120758BF80BD8B8B4AF6C87C00FB6B
:100750000C3040F2CC0EC2F2000ECEF800008A8BB4
:100760008B889A4284BFA0EB0C00CEF8000031F8D1
:10077000100C20F0080021F8100C088820F480707C
:10078000088046F6030021F8040C80BDB0B560B1C6
:1007900040F2A004C2F2000421680D18204600F0C7
:1007A00017F920688542F9D1B0BD40F2A000C2F22D
:1007B000000000F00DF9B0BD80B540F2D000C2F2EB
:1007C000000001684A1C0729026016DB0021016055
:1007D00040F60800C4F2010040F200010068C2F2D5
:1007E00000010A6800F48050824208BF80BD0860A2
:1007F000002818BF012000F037F880BD40F2A000AB
:10080000C2F20000007C704742F63441C4F201019C
:100810000880704742F62041C4F201010A8804238F
:1008200022F005020A800A88002818BF012342EA44
:10083000030008807047000042F63841C4F201010D
:100840000880704742F62041C4F201010A88102353
:1008500022F050020A800A88002818BF402342EA8A
:100860000300088070470000002808BF7047B0B53B
:1008700040F2D405C2F200052868411C0128C8BF17
:1008800000218C1E296018BF42F210742046FFF729
:10089000BBFF2046FFF7D0FF2868002818BF0120C3
:1008A000FFF7B8FF2868002818BF0120FFF7CAFF2C
:1008B000BDE8B04070470000C1B200F01F00012247
:1008C00002FA00F04EF20012CEF2000242EAD1012A
:1008D00021F00301086070470429017232D8DFE873
:1008E00001F0031322292E00D0E90023B3F5805F25
:1008F00012BF13614FF4805353614A1E032A21D85B
:10090000DFE802F00211181DD0E90023B3F5805F83
:1009100012BF53614FF48053136104290FD0032990
:1009200008D002290ED14FF4C8720429C26006D043
:10093000032907D1C8220429C26018BF70474FF4A9
:100940004871C16070470000017A022938BF7047C2
:10095000D0E9032101319142016109D300210161F4
:10096000D0E90010CA6810421CBF48617047086196
:100970007047000010B5044601209040C4E9001003
:1009800020460121FFF7A8FF204610BD41680A88D4
:10099000120658BF7047026832B113784BB1531C2E
:1009A0000360107888807047888920F080008881F3
:1009B000704700210160704702682AB943680160EE
:1009C000988940F080009881B2FA82F0400970471F
:1009D00080B5016842698A4208BF80BD416142F228
:1009E0000840C4F2010001210160FFF755FEFFF746
:1009F000E3FE80BD2DE9F04741F21801C4F2020187
:100A000041F60C220A600522C0F206024A6040F656
:100A1000000144F64222C4F20101CAF2A4420A6073
:100A20004AF2AA42C4F244424A6044F24042C4F24A
:100A30004422C1F8002440F6044144F64422C4F2A2
:100A40000101CAF6A2220A604FF60C4143F20006E9
:100A5000CFF6FF71C4F201064FF0010826F80180BD
:100A60004FF62841CFF6FF71032272524FF62C4108
:100A7000CFF6FF714AF6C77272524FF61841CFF6A1
:100A8000FF7146F6680272524FF62041CFF6FF71B1
:100A90004FF4007272524FF64441CFF6FF714FF49B
:100AA000004244F20C457252C4F2000540F6A661C1
:100AB00025F8041C40F2391144F60C07A5F8FC1384
:100AC000C4F200070C213980398842F2104929808C
:100AD000C4F201094FF0E061C9F800100821C9F81B
:100AE00024104021B18040F23E3118243180C4F2FC
:100AF00000046721A4F8F017B4F8F017824624F830
:100B0000101C4FF480712180218819202180FFF76B
:100B1000D3FE2620FFF7D0FE2720FFF7CDFE2320AF
:100B2000FFF7CAFE28884FF0804140F4005028802B
:100B3000388840F400503880308840F040003080E1
:100B4000A4F8E887B4F8E80708805046A9F8F087C9
:100B5000BDE8F08780B540F2780040F60041C2F26F
:100B60000000C4F201010C22FFF704FF80BD000069
:100B700080B540F2A000C2F20000FFF73BFF80BD4D
:100B800080B540F28C0040F60041C2F20000C4F291
:100B900001010622FFF7EEFE80BD000080B540F2A5
:100BA000B80040F60001C2F20000C4F201010022C8
:100BB000FFF7E0FE80BD000040F2D804C2F200045E
:100BC00021A500BF2820FFF7E1FDFFF717FE06462D
:100BD000FFF74AFD024620462946FFF7FBFAF007D9
:100BE0004FF0300008BF2E206070B0074FF030008B
:100BF00058BF2E20A07070074FF0300058BF2E2035
:100C0000E07030074FF0300058BF2E202071F00602
:100C10004FF0300058BF2E20A071B0064FF03000CA
:100C200058BF2E20E07170064FF0300058BF2E20C4
:100C3000207230064FF0300058BF2E2060722046E0
:100C4000FFF720FDBEE700BF0D30313233203435D1
:100C5000363720202064697374616E63653D2564B6
:100C6000202020008C0C0008000000201400000050
:100C700028010008A00C000818000020E006000071
:100C800044010008CDF9FFFFD9F9FFFF0010000073
:100C90000000000000440040000000000048004048
:040000050800019559
:00000001FF
