:020000040800F2
:10000000A8060020750100087D0100087F01000896
:10001000810100088301000885010008000000003C
:100020000000000000000000000000008701000840
:1000300089010008000000008B0100088D01000804
:100040008F0100088F0100088F0100088F01000850
:100050008F0100088F0100088F0100088F01000840
:100060008F0100088F0100088F0100088F01000830
:100070008F0100088F0100088F0100088F01000820
:100080008F0100088F0100088F0100088F01000810
:100090008F0100088F0100088F0100088F01000800
:1000A0008F0100088F0100088F0100084D0900082A
:1000B0008F0100088F0100088F0100088F010008E0
:1000C0008F0100088F0100088F0100088F010008D0
:1000D0008F0100088F0100088F0100088F010008C0
:1000E0008F0100088F0100088F01000800F002F85E
:1000F00000F031F80AA090E8000C82448344AAF191
:100100000107DA4501D100F026F8AFF2090EBAE88E
:100110000F0013F0010F18BFFB1A43F0010318473B
:100120006C0D00007C0D000000230024002500263B
:10013000103A28BF78C1FBD8520728BF30C148BF4A
:100140000B607047642900F07D80002070471FB568
:100150001FBD10B510BD00F02AF91146FFF7F7FFDB
:1001600000F056FE00F048F903B4FFF7F2FF03BCBD
:1001700000F050F90948804709480047FEE7FEE7CC
:10018000FEE7FEE7FEE7FEE7FEE7FEE7FEE7FEE747
:1001900004480549054A064B70470000D50600088B
:1001A000ED000008A8000020A8060020A8020020FA
:1001B000A80200200FB41CB5074B06AA7B44694671
:1001C0000090059800F0DBF80020694600F0EAF89E
:1001D0001CBC5DF814FB0000E50100002DE9F041B6
:1001E0000E460446002020622046E168884730B36E
:1001F000252805D0D4E901219047206A401CF2E768
:10020000E168204600278847050018D0A5F1410085
:10021000192802D820354FF4006732462946204677
:100220002760FFF78FFF40B1012804D0F61D26F0AC
:1002300007060836D8E7361DD6E72846DAE7206AEB
:10024000BDE8F0812DE9F0410646002410687529CB
:10025000314616A510D0AFF30080002802DA4042E4
:1002600013A507E031688A0701D512A502E0490706
:1002700004D511A5012401E0AFF3008000210A227A
:1002800006F1240709E0B0FBF2FCB0FBF2F302FB3D
:100290001C00303078541846491C0028F3D12346FE
:1002A0002A463046BDE8F04100F00BB800000000DF
:1002B0002D0000002B000000200000007047704758
:1002C00070472DE9F0470D4699469246044600F1E5
:1002D00024080168880604D5E06921F01001216036
:1002E00000E00120A84201DD471B00E00027A169D2
:1002F0007A1902EB0900081AA0612078C00602D41E
:100300002046AFF30080002608E0D4E901211AF866
:1003100006009047206A401C761C20624E45F4DBA4
:100320002078C0060AD52046AFF3008006E0D4E965
:10033000012130209047206A401C2062381EA7F11E
:100340000107F4DC07E0D4E9012118F80500904723
:10035000206A401C2062281EA5F10105F3DC20461E
:10036000AFF300802078000602D50220BDE8F087B8
:100370000120FBE701694A1C02610878704700B55B
:100380008FB0CDE901310021059105497944CDE9CE
:10039000031011466846FFF721FF0FB000BD0000B3
:1003A000E5FFFFFF0A6802F8010B0A607047754617
:1003B00000F02CF8AE4605006946534620F00700D1
:1003C000854618B020B5FFF7E3FEBDE820404FF0AA
:1003D00000064FF000074FF000084FF0000BAC464E
:1003E000ACE8C009ACE8C009ACE8C009ACE8C00999
:1003F00021F007018D46704710B50446AFF3008029
:100400002046BDE81040FFF7AFBE0000004870472F
:100410000000002001491820ABBEFEE726000200C4
:10042000704700002DE9F041CA7802F00F0CD306A6
:1004300044BF8B784CEA030C09880B0621D0056871
:1004400000234FF001084FF00F0E002608E000BF18
:10045000282A08BF47610136082E03F104030FD094
:1004600008FA06F70F42F6D00EFA03F425EA040460
:100470000CFA03F5482A45EA0405E9D10761EAE7E1
:100480000560B1F5807F38BFBDE8F0814468002386
:100490004FF4807E4FF00F08002607E0282A08BF9F
:1004A00047610136082E03F1040310D00EFA06F757
:1004B00007EA0105BD42F4D108FA03F5AC430CFA92
:1004C00003F5482A44EA0504E8D10761E9E74460F6
:1004D000BDE8F081416170470161704710B5C17896
:1004E00000294EF20011CEF200011AD04EF60C5245
:1004F000CEF200021268072323EA12220F23C2F170
:10050000040C23FA02F24378847890F800E003FAAE
:100510000CF322401A43120101EB0E0383F800236F
:1005200000E080310078012300F01F0203FA02F29C
:10053000C0F3421041F8202010BD0000002941F214
:100540001C01C4F202010A680CBF22EA0000104339
:1005500008607047002941F21801C4F202010A68DC
:100560000CBF22EA000010430860704710B541F24A
:100570000404C4F20204226802F00C02082A41F2C8
:100580000022C0F27A021CD12368D4F800C0C3F361
:10059000834E5FEACC330EF1020C06D440F6001213
:1005A000C0F23D020CFB02F20BE023689B0302D475
:1005B0000CFB02F205E040F60012C0F23D020CFB1B
:1005C00002F20260226840F67A63C2F30312C0F6B8
:1005D00000039A5C0168D14041602268C2F30222A4
:1005E0009A5C21FA02F282602268C2F3C2229A5C0B
:1005F00040F67663D140C1602268C0F60003C2F3C2
:1006000081329A5CB1FBF2F1016110BD80B500F05E
:1006100001F880BD82B041F204000021C4F2020062
:100620000191009150F8041C41F4803140F8041C01
:1006300050F8041C01F4003100910199013101913D
:10064000009919B90199B1F5A06FF1D150F8041CC6
:10065000890354BF0021012100910099012936D15D
:1006600042F20001C4F202010A6842F010020A607C
:100670000A6822F003020A600A6842F002020A6075
:100680000168016001680160016841F480610160F6
:10069000016821F47C110160016841F4E8110160F6
:1006A00050F8041C41F0807140F8041C50F8041C00
:1006B0008901FBD5016821F003010160016841F067
:1006C00002010160016801F00C010829FAD102B0B1
:1006D0007047000080B541F20000C4F202000168DA
:1006E000002241F0010101604168CFF6FF02114094
:1006F000416001684FF6FF72CFF6F662114001606B
:10070000016821F480210160416821F4FE0141600B
:100710004FF41F018160FFF779FF4EF60850CEF2CB
:1007200000004FF00061016080BD0000B0B5048C96
:1007300024F00104048440F6FF34B0F818C0B0F887
:1007400020E0C4F20004A0424FF6FC740DDCB0F1CE
:10075000804F1DD040F20045C4F20005A84217D0DA
:1007600040F60005C4F200050FE040F60045C4F273
:100770000005A8420CD042F60045C4F20105A8428B
:1007800006D043F20045C4F20105A84218BF083C58
:100790000EEA040529432CF0F30542EA031241F066
:1007A00001012A4302830184B0BD000010B5048C0E
:1007B00024F01004048440F6FF34B0F818C0B0F8F8
:1007C00020E0C4F20004A0420FDCB0F1804F1ED044
:1007D00040F20044C4F20004A04218D040F60004E5
:1007E000C4F20004A04212D022E040F60044C4F259
:1007F0000004A0420BD043F20044C4F20104A04222
:1008000005D042F60044C4F20104A04210D10C010C
:100810002EF03001214340F6FF441B0304EA0C0490
:1008200043EA022241F0100122430283018410BDF9
:100830002EF0B004EEE7000010B5048C24F48074B0
:10084000048440F6FF34B0F81CC0B0F820E0C4F2D5
:100850000004A0420FDCB0F1804F1ED040F20044F3
:10086000C4F20004A04218D040F60004C4F2000410
:10087000A04212D01FE040F60044C4F20004A0429F
:100880000BD043F20044C4F20104A04205D042F66A
:100890000044C4F20104A0420DD10C022EF44071B8
:1008A00021432CF0F30442EA031241F48071224305
:1008B0008283018410BD2EF43064F1E710B5048CFE
:1008C00024F48054048440F6FF34B0F81CC0B0F81F
:1008D00020E0C4F20004A0420FDCB0F1804F1ED033
:1008E00040F20044C4F20004A04218D040F60004D4
:1008F000C4F20004A04212D022E040F60044C4F248
:100900000004A0420BD043F20044C4F20104A04210
:1009100005D042F60044C4F20104A04210D10C03F9
:100920002EF44051214340F6FF441B0304EA0C041B
:1009300043EA022241F4805122438283018410BDA4
:1009400046F6FF5404EA0E04ECE70000F0B581B06F
:1009500042F60044C4F201042046082100F0C8F821
:10096000002841D040F29C06C2F20006307888B3DD
:10097000204600F0BBF840F2A007C2F20007396839
:1009800040F2600508443860386840F29401C2F2D1
:100990000001086008684CF60931C8F63D51A0FB1B
:1009A0000101480940F29801C2F2000108600A689A
:1009B000C2F200050FA12846FFF7FCFB28463221B2
:1009C00000F09AF920460021002500F0D9F8357092
:1009D0003D6009E0012030702046002100F0D8F889
:1009E0002046022100F0CCF82046092100F070F8E2
:1009F00001B0F0BD25640D0A0000000070B588B09C
:100A0000042001210125FFF7A5FD01200121FFF7A9
:100A1000A1FD40F2004042F60044C2F60300C4F2D9
:100A200001040790A4F5105007A9FFF7FBFC4FF451
:100A300000600121FFF78EFD4720049042F20F7005
:100A40000590002604A920468DF8186000F0C6F82D
:100A50002046012100F040F80820CDE9010501A958
:100A60002046ADF80C6000F04DF840F21B20C0F2BB
:100A7000001000906846FFF731FD20460921012251
:100A800000F076F808B070BD10B584B004460220BE
:100A90000121FFF753FD4720ADF8084040F2004424
:100AA00001900020C4F20004ADF80A008DF80C009B
:100AB00001A9204600F092F82046012100F00CF830
:100AC00020460121012200F053F804B010BD0000BF
:100AD000C9430182704700000288002918BF012124
:100AE00022F001021144018070470000808C7047A1
:100AF000028A80890A4018BF0122084018BF0120DD
:100B000010407047B0B50D460988044608290DD03D
:100B1000042916D001BB6988AA882B892046FFF7D3
:100B200005FEE988204600F035F8B0BD6988AA883E
:100B30002B892046FFF780FEE988204600F03CF82C
:100B4000B0BD6988AA882B892046FFF72FFEE98867
:100B5000204600F027F8B0BD6988AA882B89204676
:100B6000FFF7ACFEE988204600F02EF8B0BD00008B
:100B7000002A82890CBF22EA01011143818170475A
:100B8000028C22F4007242EA0121018470470000C5
:100B900081847047028B22F00C020283028B114386
:100BA00001837047028B22F440620283028B42EA87
:100BB0000121018370470000828B22F00C028283A6
:100BC000828B114381837047828B22F4406282833F
:100BD000828B42EA012181837047000040F6FF3397
:100BE000B0F800C0C4F2000398420FDCB0F1804FAF
:100BF0001ED040F20043C4F20003984218D040F6E1
:100C00000003C4F20003984212D016E040F60043FD
:100C1000C4F2000398420BD043F20043C4F2010334
:100C2000984205D042F60043C4F20103984204D131
:100C30004B882CF0700243EA020C41F2004240F46F
:100C40008063C4F20002934204D0CA882CF440733B
:100C500042EA030CA0F800C08A888285A0F1804295
:100C6000A2F596320B884FEAB222072A038507D8ED
:100C7000012303FA02F212F0E50F1CBF097A018684
:100C8000012181827047000070B586B005200121E6
:100C9000FFF760FC44F200440420C4F20004C1F6F3
:100CA000030004F5444505AE059028463146FFF79C
:100CB000B9FB0820ADF8140004208DF81700284671
:100CC0003146FFF7AFFB4FF400300121FFF736FC50
:100CD0004FF41650019000204FF4402102900391F0
:100CE000ADF8100001A9204600F032F8204601219D
:100CF00000F01EF806B070BD70B5C1B144F20046F8
:100D00000C460546C4F2000605E000BF002C05F1C4
:100D1000010508BF70BD29783046013C00F074F829
:100D20003046402100F00EF80028F9D0EEE770BD03
:100D30008289002918BF012122F4005242EA413180
:100D4000818170470088084018BF0120704700006B
:100D500070B586B00446008A0D46C98820F440501C
:100D600008432082A0894EF6F3110840A9882A89F9
:100D70006B89084310431843A081A08AA98920F4F5
:100D80004070084301AEA0823046FFF7EFFB43F608
:100D9000000106F10800C4F201018C4208BF06F10F
:100DA0000C0000681922B4F90C1050432A68012382
:100DB000B1F1FF3FC8BF022302FA03F1B0FBF1F02B
:100DC00048F21F51C5F2EB11A0FB01235A096FF045
:100DD000630302FB0300B4F90C300326B3F1FF3FB9
:100DE000C8BF042600FA06F000F13200A0FB0101A2
:100DF0004FF00700C8BF0F2000EA511040EA021070
:100E0000208106B070BD00006FF35F2181807047C4
:100E100082B040F60044C4F20104FFF7EFFDFFF793
:100E200033FF0A20FFF730FE08200121FFF792FB75
:100E300048F20000C1F20200019001A92046FFF72C
:100E4000F1FA0026A4F5843506E0FFF743FB0026FF
:100E500028460121FFF73CFE28460121FFF748FE06
:100E60000028F9D020464FF40041002EEDD1FFF7C5
:100E700033FB0126ECE70204060800000000010233
:100E80000304010203040607080900009C0E000881
:0C0E900000000020A80600002801000857
:040000050800017579
:00000001FF
