:020000040800F2
:10000000B806002091010008990100089B01000832
:100010009D0100089F010008A101000800000000E8
:10002000000000000000000000000000A301000824
:10003000A501000800000000A7010008A9010008B0
:10004000AB010008AB010008AB010008AB010008E0
:10005000AB010008AB010008AB010008AB010008D0
:10006000AB010008AB010008AB010008AB010008C0
:10007000AB010008AB010008AB010008AB010008B0
:10008000AB010008AB010008AB010008AB010008A0
:10009000AB010008AB010008AB010008AB01000890
:1000A000AB010008B90B0008AB010008250B0008E4
:1000B000B90C0008AB010008AB010008AB01000857
:1000C000AB010008AB010008AB01000841080008C3
:1000D000AB010008AB010008AB010008AB01000850
:1000E000AB010008AB010008AB01000800F002F80A
:1000F00000F03FF80AA090E8000C82448344AAF183
:100100000107DA4501D100F034F8AFF2090EBAE880
:100110000F0013F0010F18BFFB1A43F0010318473B
:100120001012000030120000103A24BF78C878C1C5
:10013000FAD8520724BF30C830C144BF04680C60ED
:10014000704700000023002400250026103A28BF35
:1001500078C1FBD8520728BF30C148BF0B60704739
:10016000642900F07D80002070471FB51FBD10B5C9
:1001700010BD00F02AF91146FFF7F7FF01F04EF825
:1001800000F048F903B4FFF7F2FF03BC00F050F9A8
:100190000948804709480047FEE7FEE7FEE7FEE71B
:1001A000FEE7FEE7FEE7FEE7FEE7FEE70448054957
:1001B000054A064B70470000CD0A0008ED00000814
:1001C000B8000020B8060020B8020020B8020020C5
:1001D0000FB41CB5074B06AA7B44694600900598EE
:1001E00000F0DBF80020694600F0EAF81CBC5DF87E
:1001F00014FB0000E50100002DE9F0410E46044625
:10020000002020622046E168884730B3252805D0C9
:10021000D4E901219047206A401CF2E7E1682046BA
:1002200000278847050018D0A5F14100192802D8F9
:1002300020354FF400673246294620462760FFF7F5
:100240008FFF40B1012804D0F61D26F007060836BE
:10025000D8E7361DD6E72846DAE7206ABDE8F08100
:100260002DE9F0410646002410687529314616A58F
:1002700010D0AFF30080002802DA404213A507E057
:1002800031688A0701D512A502E0490704D511A5F6
:10029000012401E0AFF3008000210A2206F12407C7
:1002A00009E0B0FBF2FCB0FBF2F302FB1C003030C3
:1002B00078541846491C0028F3D123462A46304674
:1002C000BDE8F04100F00BB8000000002D00000078
:1002D0002B000000200000007047704770472DE998
:1002E000F0470D4699469246044600F124080168FD
:1002F000880604D5E06921F01001216000E00120AA
:10030000A84201DD471B00E00027A1697A1902EB32
:100310000900081AA0612078C00602D42046AFF375
:100320000080002608E0D4E901211AF80600904771
:10033000206A401C761C20624E45F4DB2078C00603
:100340000AD52046AFF3008006E0D4E90121302031
:100350009047206A401C2062381EA7F10107F4DC98
:1003600007E0D4E9012118F805009047206A401CF5
:100370002062281EA5F10105F3DC2046AFF30080C2
:100380002078000602D50220BDE8F0870120FBE7B7
:1003900001694A1C02610878704700B58FB0CDE949
:1003A00001310021059105497944CDE90310114639
:1003B0006846FFF721FF0FB000BD0000E5FFFFFF1B
:1003C0000A6802F8010B0A607047754600F02CF8C5
:1003D000AE4605006946534620F00700854618B032
:1003E00020B5FFF7E3FEBDE820404FF000064FF0D8
:1003F00000074FF000084FF0000BAC46ACE8C00916
:10040000ACE8C009ACE8C009ACE8C00921F00701BC
:100410008D46704710B50446AFF300802046BDE816
:100420001040FFF7AFBE00000048704710000020EA
:1004300001491820ABBEFEE726000200704700000D
:1004400070B582B00C20012100F09EF941F200004D
:1004500040F60004C4F60200C4F2010401AD0190AC
:100460002046294600F072F84020C1F2020004F54F
:10047000806601903046294600F068F80120C1F2FC
:10048000020001902046294600F060F830464021E5
:1004900000F0C0F82046012100F0BEF802B070BDA7
:1004A00040F2A500C2F20000017840F2000011F015
:1004B000810F01F08101C2F2000004BF012202702D
:1004C00080290CD10178002908BF704740F27001E3
:1004D000C2F200010A8801320A80002101707047CF
:1004E000B0B540F20104C2F200042578142000F0F7
:1004F0003BFC40F20400C2F20000C5B1642140F2AE
:1005000006050180C2F2000578202880642000F0F2
:1005100065FE288800F0E2FE40F2A500C2F200006D
:100520000078C00708BFB0BD00202070B0BD012119
:1005300040F206040180C2F200040120218000F094
:100540004DFE208800F0CAFEB0BD00002DE9F0414C
:10055000CA7802F00F0CD30644BF8B784CEA030C28
:1005600009880B0621D0056800234FF001084FF0E1
:100570000F0E002608E000BF282A08BF4761013699
:10058000082E03F104030FD008FA06F70F42F6D045
:100590000EFA03F425EA04040CFA03F5482A45EAA6
:1005A0000405E9D10761EAE70560B1F5807F38BF4E
:1005B000BDE8F081446800234FF4807E4FF00F08BF
:1005C000002607E0282A08BF47610136082E03F1FC
:1005D000040310D00EFA06F707EA0105BD42F4D174
:1005E00008FA03F5AC430CFA03F5482A44EA05047B
:1005F000E8D10761E9E74460BDE8F0818068084020
:1006000018BF012070470000C068084018BF0120D3
:1006100070470000416170470161704710B5C178B3
:1006200000294EF20011CEF200011AD04EF60C5203
:10063000CEF200021268072323EA12220F23C2F12E
:10064000040C23FA02F24378847890F800E003FA6D
:100650000CF322401A43120101EB0E0383F800232E
:1006600000E080310078012300F01F0203FA02F25B
:10067000C0F3421041F8202010BD000010B54FEA31
:10068000F000032888BF10BDDFE800F0021D3955D7
:10069000142000F069FB40F20800C2F2000000786C
:1006A00040F20401C2F20001642240F206040A8012
:1006B000C2F20004782100284FF06400218050D05D
:1006C00000F06CFD49E0142000F04EFB40F2040005
:1006D000C2F200005A2140F206040180C2F2000476
:1006E000782020805A2000F079FD208800F0F6FD67
:1006F00040F20800C2F200000021017010BD142079
:1007000000F032FB40F20400C2F20000282140F267
:1007100006040180C2F2000491202080282000F00D
:100720005DFD208800F0DAFD40F20800C2F2000012
:100730000121017010BD142000F016FB40F20400EE
:10074000C2F20000322140F206040180C2F200042D
:1007500087202080322000F041FD208800F0BEFD7F
:1007600010BD00F03BFD208800F098FD10BD00009A
:10077000002941F21C01C4F202010A680CBF22EAFE
:100780000000104308607047002941F21801C4F2CC
:1007900002010A680CBF22EA00001043086070479B
:1007A00010B541F20404C4F20204226802F00C0203
:1007B000082A41F20022C0F27A021CD12368D4F840
:1007C00000C0C3F3834E5FEACC330EF1020C06D4B3
:1007D00040F60012C0F23D020CFB02F20BE023686F
:1007E0009B0302D40CFB02F205E040F60012C0F2BB
:1007F0003D020CFB02F20260226841F21E33C2F39A
:100800000312C0F600039A5C0168D140416022687F
:10081000C2F302229A5C21FA02F282602268C2F3D9
:10082000C2229A5C41F21A33D140C1602268C0F6FC
:100830000003C2F381329A5CB1FBF2F1016110BD99
:10084000F0B581B043F20004C4F20104204600F088
:10085000B1F8A4F52056054630468021FFF7D4FEB6
:1008600040F2A607C2F200073988012809D151B326
:100870002046FF2100F0A0F838880138388001B008
:10088000F0BDE1B940F2AC00C2F200000178B1B1B4
:10089000002105F09902017040F2A50040F27205B6
:1008A000C2F20000C2F2000502700FA12846FFF755
:1008B0008FFCA4F568402946322200F0D3FB00F0FB
:1008C00059FC01B0F0BD30468021FFF7A3FE204661
:1008D000002100F071F840F2AC00C2F200000121EA
:1008E000017001B0F0BD00BF5350493A25640D0AB4
:1008F00000000000B0B586B004200121FFF744FFDE
:1009000001200121FFF740FF4FF480500121FFF744
:100910003BFF202040F60004C1F60300C4F20104AE
:1009200005AD059020462946FFF710FE4020C1F690
:100930000300059020462946FFF708FE8020C1F6F7
:100940000300059020462946FFF700FE4FF0827015
:1009500000904FF4003001900120C0F2002002907E
:10096000382004F5205403906946204600F026F80C
:1009700020466021012200F011F82046012100F0FC
:1009800003F806B0B0BD00000288002918BF01219D
:1009900022F0400242EA81110180704709090123D7
:1009A00003FA01F1002A82880CBF22EA01011143F7
:1009B0008180704780897047818170472DE9F041BF
:1009C00002880B8802F4415C4A88B1F804E043EAEB
:1009D0000C03CC881A430D8942EA0E024E89224349
:1009E0008F892A43B1F80E8032433A4342EA080223
:1009F0000280828B22F400628283098A0182BDE830
:100A0000F081000080B500F001F880BD82B041F2B5
:100A100004000021C4F202000191009150F8041C6E
:100A200041F4803140F8041C50F8041C01F40031FA
:100A30000091019901310191009919B90199B1F51C
:100A4000A06FF1D150F8041C890354BF002101218B
:100A500000910099012936D142F20001C4F202014D
:100A60000A6842F010020A600A6822F003020A6073
:100A70000A6842F002020A600168016001680160D0
:100A8000016841F480610160016821F47C1101601A
:100A9000016841F4E811016050F8041C41F08071D4
:100AA00040F8041C50F8041C8901FBD5016821F0B2
:100AB00003010160016841F002010160016801F079
:100AC0000C010829FAD102B07047000080B541F24C
:100AD0000000C4F202000168002241F0010101603F
:100AE0004168CFF6FF021140416001684FF6FF7286
:100AF000CFF6F66211400160016821F480210160A7
:100B0000416821F4FE0141604FF41F018160FFF74D
:100B100079FF4EF60850CEF200004FF00061016000
:100B200080BD0000B0B542F60044C4F20104204686
:100B3000082100F069F9A8B340F2AD05C2F2000542
:100B40002878F8B1204600F05DF940F2B001C2F219
:100B50000001086008684CF60931C8F63D51A0FB59
:100B60000101480940F2A801C2F2000108600A68C8
:100B700040F27200C2F200000DA1FFF729FB002134
:100B800029700CE040F2B000C2F2000000210160C8
:100B9000012028702046002100F0D2F902212046D1
:100BA00000F0C6F92046082100F012F9B0BD00BFE0
:100BB0002564636D0D0A0000B0B540F60045C4F22F
:100BC000010505F500542046012100F01DF9B0B1E2
:100BD00040F20200C2F20000017881F001010170D0
:100BE000007860B928464FF40041FFF715FD0A2050
:100BF00000F0BAF828464FF40041FFF70BFD2046FD
:100C0000012100F0E5F8B0BDF0B585B00C20012160
:100C1000FFF7BAFD01200121FFF7B6FD4FF4006098
:100C20000121FFF7B1FD42F6004440F20010C4F28A
:100C30000104C1F60200A4F5105504AE0490284644
:100C40003146FFF783FC42F20000C1F60200A4F532
:100C50000057049038463146FFF778FC40F20020F8
:100C6000C1F60200049028463146FFF76FFC44F2BB
:100C70000000C1F60200049038463146FFF766FCDA
:100C80004720019042F20F70029000208DF80C0076
:100C900001A9204600F056F92046012100F09CF8F9
:100CA0002046012100F08AF820460121012200F0AF
:100CB000B5F805B0F0BD000080B54FF080400121CF
:100CC00000F0A2F8E8B100F0D1FA40F27000C2F2F0
:100CD0000000008801280BD8FFF7E2FB40F2A500D6
:100CE000C2F20000007800F07E00FFF7C7FC08E0C9
:100CF00040F60000C4F201000121FFF78DFCFFF770
:100D0000EFFB4FF08040012100F062F880BD000051
:100D100080B584B001200121FFF72AFD44F24F6025
:100D2000019040F28F10029000208DF80C0042F6E6
:100D30000040C4F2010001A900F004F94FF0804026
:100D4000012100F049F84FF080400121012200F01C
:100D500065F840F21C10C0F2001000906846FFF7E2
:100D60005DFC04B080BD0000B0B584B0054640F223
:100D7000004402200121C4F20004FFF7F9FC4720DF
:100D80000190681EADF808000020ADF80A008DF84B
:100D90000C0001A9204600F0D5F82046012100F002
:100DA0001BF820460121012200F038F820460121DD
:100DB00000F02AF80028F9D004B0B0BD028800295C
:100DC00018BF012122F0800242EAC1110180704760
:100DD000C9430182704700000288002918BF012121
:100DE00022F001021144018070470000B0F8442055
:100DF000002918BF01216FF3DF3242EAC131A0F8A8
:100E000044107047808C7047028A80890A4018BF5E
:100E10000122084018BF012010407047002A828933
:100E20000CBF22EA0101114381817047B0B5028CE9
:100E300022F001020284038C8288B0F818C00C8969
:100E400023F002032343A0F180444D88A4F5963497
:100E5000B1F800E04FEAB424072C43EA050313D8A5
:100E6000012505FA04F414F0E50F0DD04C8923F0A8
:100E70000C0324F004048D8823438C892B4322F433
:100E80004072CD8922432A432CF0730545EA0E05B2
:100E900082800583C98881860384B0BD028B22F0DD
:100EA0000802114301837047B0B5028C43F200443D
:100EB00022F010020284028C8588B0F818C00B89D9
:100EC00022F0200242EA03124B88C4F20104B1F876
:100ED00000E0A04242EA031205D042F60043C4F209
:100EE0000103984212D14B896FF0400422F0C002F6
:100EF00004EA03138C881A4342EA04128C8925F40D
:100F00004063CD8943EA840343EA85052CF4E64334
:100F100043EA0E2385800383C98801870284B0BD1C
:100F2000028B22F4006242EA012101837047000033
:100F3000028C22F4007242EA012101847047000011
:100F40008184704740F6FF33B0F800C0C4F200035C
:100F500098420FDCB0F1804F1ED040F20043C4F243
:100F60000003984218D040F60003C4F200039842F0
:100F700012D016E040F60043C4F2000398420BD0B2
:100F800043F20043C4F20103984205D042F6004305
:100F9000C4F20103984204D14B882CF0700243EA5A
:100FA000020C41F2004240F48063C4F2000293421A
:100FB00004D0CA882CF4407342EA030CA0F800C0A5
:100FC0008A888285A0F18042A2F596320B884FEA8A
:100FD000B222072A038507D8012303FA02F212F08E
:100FE000E50F1CBF097A018601218182704700004C
:100FF00070B586B009200121FFF7C6FB4FF48020B1
:101000000121FFF7B5FB44F6000440F20040C4F2B2
:101010000004C1F6030004F5444505AE05902846DA
:101020003146FFF793FA4FF40060ADF81400042046
:101030008DF8170028463146FFF788FA4FF4E13063
:10104000019000204FF4402102900391ADF8100070
:1010500001A9204600F02EF82046012100F01AF8E0
:1010600006B070BD70B5A2B114460D46064604E048
:10107000002C05F1010508BF70BD29783046013C00
:1010800000F074F83046402100F00EF80028F9D046
:10109000EEE770BD8289002918BF012122F40052B9
:1010A00042EA4131818170470088084018BF012021
:1010B0007047000070B586B00446008A0D46C988A6
:1010C00020F4405008432082A0894EF6F3110840D6
:1010D000A9882A896B89084310431843A081A08AF4
:1010E000A98920F44070084301AEA0823046FFF782
:1010F00057FB43F6000106F10800C4F201018C42DF
:1011000008BF06F10C0000681922B4F90C10504316
:101110002A680123B1F1FF3FC8BF022302FA03F19D
:10112000B0FBF1F048F21F51C5F2EB11A0FB012317
:101130005A096FF0630302FB0300B4F90C30032675
:10114000B3F1FF3FC8BF042600FA06F000F13200F9
:10115000A0FB01014FF00700C8BF0F2000EA5110AB
:1011600040EA0210208106B070BD00006FF35F21DD
:10117000818070474EF28410CEF200000821016099
:10118000BFF34F8FBFF36F8F704700004EF2041014
:10119000CEF20000082101607047000010B584B055
:1011A0000138ADF80600042042F600446021ADF895
:1011B00004000020C4F201040091ADF80A00694661
:1011C0002046FFF733FE20460821FFF767FE204642
:1011D0000121FFF70BFE04B010BD000010B584B074
:1011E0006021013842F60044C0F20101ADF806006A
:1011F0000020C4F201040091ADF80400ADF808002D
:1012000069462046FFF712FE20460821FFF746FEFA
:1012100020460121FFF7EAFD04B010BDFFF7E8FE0C
:10122000FFF70EF940F2A405C2F20005287830B1AC
:10123000FFF7EAFCFFF76CFDFFF75CFBFEE740F60B
:101240000004C4F20104012603E000BF287800284E
:10125000EED120464FF48051FFF7D0F90028F5D1A8
:1012600020460121FFF7D6F92E70EFE710B540F6C2
:101270000004C4F2010420468021FFF7CDF904F5F3
:1012800020500021FFF798FB40F2A600C2F20000B8
:1012900004210180FFF77AFF10BD000010B584B073
:1012A0006021013842F60044C0F20101ADF80600A9
:1012B0000020C4F201040091ADF80400ADF808006C
:1012C00069462046FFF7F0FD20460821FFF728FE7B
:1012D00020460121FFF78AFD04B010BD10B584B08F
:1012E0000138ADF80600042042F600446021ADF854
:1012F00004000020C4F201040091ADF80A00694620
:101300002046FFF7D1FD20460821FFF709FE2046C1
:101310000121FFF76BFD04B010BD020406080000B8
:10132000000001020304010203040607080900008B
:1013300050130008000000200C00000028010008E5
:101340005C13000810000020A806000044010008FB
:0C1350000101010001000100010000008B
:04000005080001915D
:00000001FF
