:100000000C9434000C943E000C943E000C943E0082
:100010000C943E000C943E000C943E000C943E0068
:100020000C943E000C943E000C943E000C943E0058
:100030000C943E000C943E000C943E000C943E0048
:100040000C943E000C943E000C943E000C943E0038
:100050000C943E000C943E000C943E000C943E0028
:100060000C943E000C943E0011241FBECFEFD8E04C
:10007000DEBFCDBF0E9462000C947E000C94000095
:1000800083EA84BD8CE085BD8CE787BD089583EA53
:100090008093B0008EE08093B1008CE78093B30032
:1000A00008958DE38093890088E0809388008DE037
:1000B00080938100B19BFECF1092810086B3827045
:1000C00086BB089517B88FEF8AB984B90E944000A3
:1000D0000E94470010928B0010928A0083E6809362
:1000E000B40009E1C4EBD0E013E60E94510008BD62
:1000F00018820E94510018BC1883F7CFF894FFCFE4
:00000001FF
