:100000000C9434000C9446000C9446000C9446006A
:100010000C9446000C9446000C9446000C94460048
:100020000C9446000C9446000C9446000C94460038
:100030000C9446000C9446000C9446000C94460028
:100040000C9446000C9446000C9446000C94460018
:100050000C9446000C9483000C9446000C944600CB
:100060000C9446000C94460011241FBECFEFD8E03C
:10007000DEBFCDBF21E0A0E0B1E001C01D92A43001
:10008000B207E1F70E9466000C940B010C9400008B
:1000900083EA84BD8CE085BD8CE787BD089583EA43
:1000A000809380008BE18093810083EF91E09093B7
:1000B000890080938800089583EA8093B0008EE0E1
:1000C0008093B1008CE78093B300089517B88FEF49
:1000D0008AB984B978940E9448000E944F000E9417
:1000E0005C00EAE7F0E08FE8808380EC80937C009E
:1000F00018BC10928B0010928A001092B40080817C
:1001000080648083FFCF1F920F920FB60F9211244D
:100110002F938F939F93EF93FF9380910001909182
:1001200001010196909301018093000120917800D4
:1001300020930301209179002093020182309105E0
:10014000E9F083309105C1F1019709F055C0809124
:1001500003018B3F50F08CE788BD10920301109291
:10016000020181EC80937C0047C018BC109203010F
:100170001092020181EC80937C003EC080910301CB
:100180008B3F70F083EF91E090938B0080938A0017
:10019000109203011092020182EC80937C002CC02B
:1001A00010928B0010928A001092030110920201AB
:1001B00082EC80937C0020C0809103018B3F78F01B
:1001C0008CE78093B400109203011092020180EC3E
:1001D00080937C0010920101109200010DC01092DA
:1001E000B400109203011092020180EC80937C0015
:1001F0001092010110920001EAE7F0E08081806432
:100200008083FF91EF919F918F912F910F900FBE5F
:0A0210000F901F901895F894FFCF8F
:00000001FF
