S00F0000746573745F51322E7372656373
S11300000C9434000C9446000C9446000C94460066
S11300100C9446000C9446000C9446000C94460044
S11300200C9446000C9446000C9446000C94460034
S11300300C9446000C9446000C9446000C94460024
S11300400C9446000C9446000C9446000C94460014
S11300500C9446000C947D000C9446000C944600CD
S11300600C9446000C94460011241FBECFEFD8E038
S1130070DEBFCDBF21E0A0E0B1E001C01D92A230FF
S1130080B207E1F70E946E000C94CB000C940000C0
S113009088E18093C10086E08093C20087E690E007
S11300A09093C5008093C4000895E0ECF0E0908143
S11300B095FFFDCF8093C60008958DE3809389005A
S11300C088E0809388008DE080938100B19BFECF0F
S11300D01092810086B3827086BB089517B8789415
S11300E00E944800EAE7F0E08FE8808380EC809388
S11300F07C00808180648083FFCF1F920F920FB6B3
S11301000F9211242F933F934F935F936F937F9399
S11301108F939F93AF93BF93EF93FF938091780056
S11301208093010190917900909300018B3F78F0C6
S113013082E40E94550082E60E94550082E40E94F7
S1130140550082E60E9455000E945D000EC089E5BC
S11301500E94550089E70E94550089E50E945500D8
S113016089E70E9455000E945D00EAE7F0E0808183
S113017080648083FF91EF91BF91AF919F918F91A4
S11301807F916F915F914F913F912F910F900FBE8F
S10D01900F901F901895F894FFCF0C
S9030000FC
